:020000040800F2
:10000000300700206D020008D5190008AD15000862
:10001000D1190008990600085D1C000800000000C6
:10002000000000000000000000000000091A0008A5
:100030009D06000800000000051A00083D1A00088F
:10004000870200088702000887020008870200086C
:10005000870200088702000887020008870200085C
:10006000870200088702000887020008870200084C
:10007000870200088702000887020008870200083C
:10008000870200088702000887020008870200082C
:10009000870200088702000887020008870200081C
:1000A000870200088702000887020008870200080C
:1000B00087020008870200088702000887020008FC
:1000C00087020008870200088702000887020008EC
:1000D00087020008870200088702000887020008DC
:1000E00087020008870200088702000887020008CC
:1000F00087020008870200088702000887020008BC
:1001000087020008870200088702000887020008AB
:10011000870200088702000887020008870200089B
:10012000870200088702000887020008870200088B
:10013000870200080000000000000000870200089D
:10014000870200088702000887020008870200086B
:10015000870200088702000887020008870200085B
:10016000870200088702000887020008870200084B
:1001700087020008870200088702000800000000CC
:1001800000000000870200080000000000000000DE
:10019000870200080000000000000000870200083D
:1001A00000000000000000000000000087020008BE
:1001B00087020008870200088702000887020008FB
:1001C0008702000800F002F800F041F80AA090E869
:1001D000000C82448344AAF10107DA4501D100F002
:1001E00036F8AFF2090EBAE80F0013F0010F18BF8E
:1001F000FB1A43F001031847C41E0000E41E000070
:10020000103A24BF78C878C1FAD8520724BF30C842
:1002100030C144BF04680C60704700000023002414
:1002200000250026103A28BF78C1FBD8520728BF06
:1002300030C148BF0B607047642900F0F780002090
:1002400070471FB501F01CFF1FBD10B510BD00F0B9
:10025000E8F91146FFF7F5FF01F046FD00F006FA58
:1002600003B4FFF7F2FF03BC00F00EFA0948804721
:1002700009480047FEE7FEE7FEE7FEE7FEE7FEE788
:10028000FEE7FEE7FEE7FEE704480549054A064BA0
:1002900070470000F11A0008C50100083001002075
:1002A00030070020300300203003002053EA020C06
:1002B00000F069802DE9F04B4FF00006002B1FBFC6
:1002C000B3FA83F503FA05F424FA05F65E4012BF8B
:1002D0001643B2FA82F502FA05F4C5F120051EBFF5
:1002E00022FA05FC44EA0C04203556EA044C4FEA95
:1002F000144418BF641C4FF000084FF000099042EE
:1003000071EB030C39D3002919BFB1FA81F701FA57
:1003100007F6B0FA80F700FA07F6C7F120071EBF0C
:1003200020FA07FC46EA0C062037B6FBF4FCA7EBE4
:100330000507103F07F01F0BCBF120062CFA06F63D
:100340000CFA0BFB44BFB3460026202FA4BF5E4629
:100350004FF0000B5BEA060C08BF4FF0010B19EBE6
:100360000B0948EB0608ABFB027C06FB02CC0BFB3F
:1003700003CCC01B71EB0C01C1E70B4602464146A2
:100380004846BDE8F08B13B5084318BF4FF0FF3067
:100390000146AFF30080BDE81C4070470FB41CB5A8
:1003A000074B06AA7B4469460090059800F021F9A6
:1003B0000020694600F030F91CBC5DF814FB000019
:1003C000710200002DE9F0410E4604460020206233
:1003D0002046E168884730B3252805D0D4E90121BB
:1003E0009047206A401CF2E7E168204600278847D2
:1003F000050018D0A5F14100192802D820354FF486
:1004000000673246294620462760FFF715FF40B1B6
:10041000012804D0F61D26F007060836D8E7361D59
:10042000D6E72846DAE7206ABDE8F0812DE9F041F9
:100430000646002410687529314616A510D0AFF382
:100440000080002802DA404213A507E031688A07DD
:1004500001D512A502E0490704D511A5012401E048
:10046000AFF3008000210A2206F1240709E0B0FB67
:10047000F2FCB0FBF2F302FB1C003030785418465B
:10048000491C0028F3D123462A463046BDE8F041F6
:1004900000F051B8000000002D0000002B0000000B
:1004A0002000000010B5431C02E010F8011B71B1E0
:1004B0008107FAD14FF0013202C88C1A8C4314EA3A
:1004C000C211F9D0C01A0A0603D0C01E10BDC01A4E
:1004D00010BD0A0401D0801E10BD0902FCD0401ED0
:1004E00010BD4FF0000200B51346944696462039E1
:1004F00022BFA0E80C50A0E80C50B1F12001BFF4DD
:10050000F7AF090728BFA0E80C5048BF0CC05DF842
:1005100004EB890028BF40F8042B08BF704748BF90
:1005200020F8022B11F0804F18BF00F8012B704704
:100530007047704770472DE9F0470D46994692463F
:10054000044600F124080168880604D5E06921F01A
:100550001001216000E00120A84201DD471B00E0FE
:100560000027A1697A1902EB0900081AA061207816
:10057000C00602D42046AFF30080002608E0D4E98C
:1005800001211AF806009047206A401C761C206260
:100590004E45F4DB2078C0060AD52046AFF3008034
:1005A00006E0D4E9012130209047206A401C2062F7
:1005B000381EA7F10107F4DC07E0D4E9012118F89F
:1005C00005009047206A401C2062281EA5F1010505
:1005D000F3DC2046AFF300802078000602D502202D
:1005E000BDE8F0870120FBE701694A1C0261087839
:1005F000704700B58FB0CDE9013100210591054963
:100600007944CDE9031011466846FFF7DBFE0FB0D1
:1006100000BD0000E5FFFFFF0A6802F8010B0A6059
:100620007047754600F02CF8AE4605006946534603
:1006300020F00700854618B020B5FFF725FEBDE87D
:1006400020404FF000064FF000074FF000084FF039
:10065000000BAC46ACE8C009ACE8C009ACE8C00986
:10066000ACE8C00921F007018D46704710B504467B
:10067000AFF300802046BDE81040FFF7F1BD000059
:10068000004870471000002001491820ABBEFEE76B
:100690002600020070470000FEE7000070470000DF
:1006A000EFF3108072B600BFFEE70000B0B504465D
:1006B00000F0E2F8054640F20400C2F200000078C3
:1006C000611C18BF044400BF00F0D6F8401BA042D4
:1006D000FAD3B0BD2DE9F04F83B000F13E4202F1F4
:1006E000FF724FEAB22241F600070192C4F20207FC
:1006F00007224FF0010E00254FF0000A4FF00008CE
:10070000B84208BF062200920AE000BF08F10108C3
:100710000AF1040AB8F1100F05F1020500F0A280F9
:100720000C680EFA08FB14EA0B09EFD04C6804F0D1
:10073000030CACF1010EBEF1010F11D80322876842
:1007400002FA05F6CA68B743AA403A438260426893
:10075000C4F3001722EA0B0207FA08F73A43426093
:10076000BCF1030F1CD0C26803238E6803FA05F79F
:10077000BA4306FA05F73A43BCF1020FC2600FD143
:100780006FF0030202EA580202440AF01C060F232B
:10079000176A03FA06F40B69A743B3403B4313629D
:1007A000026803234F68AB409A4307F00303AB4052
:1007B0001A4317F4403F4FF0010E0260A6D000220A
:1007C00043F644030292C4F202031A6843F600445B
:1007D00042F480421A601A68C4F2010402F48042B2
:1007E0000292029A28F003024FF6084B2244CFF6F9
:1007F000FF7B52F80B300AF00C070F26BE4023EAAD
:10080000060C019B009E062B38BF1E4606FA07F712
:1008100047EA0C0342F80B3022684B6842EA0907AA
:10082000DE0358BF22EA0907276062689E0342EA96
:10083000090758BF22EA09076760A268DE0242EA98
:10084000090758BF22EA0907A76043F60C47C4F21C
:1008500001073A689B0242EA090358BF22EA0903EA
:100860003B6053E703B0BDE8F08F0000002A08BFEB
:10087000090481617047000040F21010C2F20000CC
:1008800000687047F0B581B0B0B3044690F83D0001
:1008900028B9002084F83C00204600F0C7F9242045
:1008A00084F83D002068016821F0010101600168C1
:1008B00041F400410160016821F40041016000F051
:1008C00069FB48F28041C0F21E0140F600126568E3
:1008D00088424FF00001C0F23D0248F2A16C4FF097
:1008E000000338BF01219042C0F2010C38BF012340
:1008F000654538BF0B4613B1012001B0F0BD4DF680
:100900008361C4F21B31A0FB011221684FEA924EB1
:100910004B684FF4967623F03F0343EA92434B60D3
:1009200044F6D3530F6A0EFB06F6C1F26203A6FB30
:10093000033627F03F03B709654538BF970C7A1C8B
:100940001A430A62CA6948F2A0674CF6FF73C0F204
:100950000107BD4222EA030C0AD801386A00B0FB45
:10096000F2F001306FF31F30042898BF04202BE011
:10097000A368A0F1010E9BB119206843BEFBF0F003
:100980000422013062F31F30000512D09BB1192000
:100990006843BEFBF0F00422013062F31F3011E027
:1009A00005EB4500BEFBF0F001306FF31F30000592
:1009B000ECD1012008E005EB4500BEFBF0F0013072
:1009C0006FF31F3040F4004040EA0C00C861086833
:1009D000D4E9072320F0C00010431843086088685A
:1009E00048F2FF3204F10C0790438CCF18431043B8
:1009F000A6698860C86820F0FF0038433043C860AB
:100A0000086840F00100086000202021206484F87C
:100A10003D10206384F83E0001B0F0BD2DE9F043A5
:100A200083B01F4616460D460446FFF725FF94F88F
:100A30003D1020290FD102218146C0F2100120462D
:100A400001221923CDF8009000F050FE18B994F857
:100A50003C00012803D1022003B0BDE8F08301214E
:100A6000226884F83C101368DDE90B080A99DB075B
:100A700003D1136843F001031360136823F4006388
:100A80001360222284F83D20402284F83E20002278
:100A9000226461626085608D294620850020CFF642
:100AA000FF70E062204632463B46CDF80080CDF82C
:100AB000049000F095FD18B1012003B0BDE8F0836B
:100AC000208D022806D0012810D000BB0020029003
:100AD000206812E02068016821F4806101600168EB
:100AE00041F4006101600021029113E02068016877
:100AF00021F48061016000210291416902918169C4
:100B000002910299016841F40071016007E0002040
:100B10000290206841690291806902900298208DBC
:100B2000002877D00427C0F2010716E0204641468E
:100B30004A4600F05BFE0028BED12068616A006969
:100B40000870606A218D01306062481E2085608DCA
:100B500001386085208D00285CD003283ED802280B
:100B60001CD00128E2D02046394600224346CDF869
:100B7000009000F0BBFD00289ED12068616A0268E9
:100B800022F48062026000690870606A218D013081
:100B90006062481E2085608D013860852046394698
:100BA00000224346CDF8009000F0A0FD00287FF41D
:100BB00083AF2068616A026842F4007202600069D3
:100BC0000870606A2268411C6162218D01392185AB
:100BD000618D0139618511694170B2E72046414656
:100BE0004A4600F003FE00287FF466AF2068616A81
:100BF00000690870606A228D0130013A60622285C6
:100C00002168628D013A62854A695207A2D5096955
:100C1000017096E7202084F83D00002084F83E0013
:100C200084F83C0003B0BDE8F0830000B0B586B0A6
:100C300045F200410068C4F2000100248842059496
:100C4000CDE903440294019401D006B0B0BD43F64F
:100C500030050094C4F20205286840F002002860C4
:100C6000286800F00200009000984FF44070019056
:100C70001220CDE90204032004900420059001F520
:100C8000D83001A9FFF726FD0094286940F4001030
:100C90002861286900F400100090009806B0B0BDEB
:100CA00040F2040040F21011C2F20000C2F2000152
:100CB00000780A68104408607047000080B543F669
:100CC0000040C4F20200016841F400710160016853
:100CD00041F480610160016841F48071016003208A
:100CE00000F060F8002000F005F800F02BF800207C
:100CF00080BD0000B0B540F20402C2F2000240F232
:100D000000011278C2F200014FF47A730968B3FB54
:100D1000F2F20446B1FBF2F1084600F073FB0F2C2F
:100D20004FF001050CD858B94FF0FF302146002292
:100D3000002500F027F840F20800C2F2000004602D
:100D40002846B0BD80B582B0002043F64001019036
:100D5000C4F202014A6842F480424A604A6802F4DE
:100D600080420192019A0090086840F0805008602B
:100D7000086800F0805000900098072000F012F8FA
:100D800002B080BD70B514460D46064600F068FFFF
:100D90002946224600F020FE0146304600F068FF5A
:100DA00070BD000080B500F075FF80BD70B582B0E9
:100DB0000020019043F64000C4F202000168402682
:100DC00041F0805101600068C4F20E2600F08050AE
:100DD0000190019847F204050120C4F2000530603B
:100DE000FFF74AFD044600BF2868C00306D4FFF79A
:100DF00043FD001BB0F57A7FF6D90EE0012070604C
:100E0000FFF73AFD044600BF2868800308D4FFF7C7
:100E100033FD001BB0F57A7FF6D9032002B070BD18
:100E2000002002B070BD00002DE9F041002800F064
:100E30008B8043F60808C4F202080446D8F8F80389
:100E40000D4600F00F00884207D288F8F853D8F812
:100E5000F80300F00F00A84276D12068810717D56B
:100E6000410705D5D8F8001041F4E051C8F800104A
:100E7000010705D5D8F8001041F46041C8F800100A
:100E8000D8F80010A26821F0F0011143C8F8001052
:100E9000C0073FD1D8F8F80300F00F00A84207D9E7
:100EA00088F8F853D8F8F80300F00F00A8424BD1A7
:100EB0002068410707D5D8F80010E26821F4E05116
:100EC0001143C8F80010000708D5D8F800002169C0
:100ED00020F4604040EAC100C8F8000000F07EF84D
:100EE000D8F8001042F2A402C1F30311C0F60002C8
:100EF000515C40F2000220FA01F140F20800C2F217
:100F000000000068C2F200021160FFF7F3FE00204B
:100F1000BDE8F0816068811E022907D258F8081CDC
:100F200089015CBF0120BDE8F08110E0012807D1F4
:100F300058F8081C89035CBF0120BDE8F08106E079
:100F400058F8081C890702D40120BDE8F081D8F8C0
:100F5000001021F003010843C8F80000FFF78CFCE3
:100F6000064641F2883700BFD8F80000616800F0FB
:100F70000C00B0EB810F8DD0FFF77EFC801BB842D8
:100F8000F2D90320BDE8F08140F20000C2F2000077
:100F90000068704780B5FFF7F7FF43F60801C4F219
:100FA0000201096842F2B402C1F38221C0F60002D4
:100FB000515CC84080BD000080B5FFF7E5FF43F6F7
:100FC0000801C4F20201096842F2B402C1F34231DD
:100FD000C0F60002515CC84080BD000010B543F669
:100FE0000404C4F202046068C0F3810142F20040CC
:100FF000C0F2F400DFE801F04102071641F20020E0
:10100000C0F27A0010BD216801F03F022168236818
:101010004902C3F3881114D4A1FB00010023FFF798
:1010200045F915E0216801F03F0221682368490273
:10103000C3F3881115D4A1FB00010023FFF736F993
:1010400016E041F20020C0F27A004843B0FBF2F013
:1010500021680222C1F3014102EB4101B0FBF1F032
:1010600010BD41F20020C0F27A004843B0FBF2F01C
:101070002168C1F30271B0FBF1F010BD2DE9F04120
:1010800082B0002800F096800446007843F60006FF
:10109000C007C4F202062BD0B06800F00C00042890
:1010A00020D0B06800F00C00082802D1706840021F
:1010B00018D4B06800F00C000C2802D1706840020F
:1010C00010D46568B5F5A02F00F05081B5F5803FCC
:1010D00000F05081306820F480303060306820F4B7
:1010E00080204AE13068800302D56068002861D022
:1010F0002078800722D5B06810F00C0F11D0B068AE
:1011000000F00C00082802D17068400209D5B068D0
:1011100000F00C000C2840F09B807068400200F149
:1011200097803068800702D5E068012842D1306896
:10113000216920F0F80040EAC10030602078000703
:101140003CD42078400750D4A5698DB3B06800F036
:101150000C00082840F0A480012D2BD07068E169B4
:1011600000F480028A4225D1216A00F03F028A42BF
:1011700020D147F6C071626A0140B1EB821F19D1DC
:10118000A26A0023CFF6FF7303EBC23200F44031B2
:101190006FF30F0291420DD1E16A00F07062B2EB81
:1011A000016F07D1216B00F0E040B0EB017F01D16E
:1011B000002024E1012002B0BDE8F0816069002830
:1011C00040F20000C4F247205AD00121C0F8801E2E
:1011D000FFF752FB054600BF706F8007B1D4FFF7E1
:1011E0004BFB401B0228F7D994E0306C10F080587C
:1011F0000AD100200190306C40F080503064306C97
:1012000000F080500190019847F20007C4F20007F7
:101210003868C0050FD4386840F480703860FFF734
:101220002BFB05463868C00505D4FFF725FB401B9E
:101230000228F7D96EE0A568052D53D0012D55D0B1
:10124000306F20F001003067306F20F0040050E074
:10125000E068002875D00020C4F247200121016019
:10126000FFF70AFB054600BF306880073FF55FAF18
:10127000FFF702FB401B02284FF00300F4D9BEE049
:101280000021C0F8801EFFF7F7FA0546706F80074F
:101290007FF557AFFFF7F0FA401B0228F6D939E087
:1012A0000027C4F2472700203866FFF7E5FA022D31
:1012B00005460BD13068800140F17D80FFF7DCFAF4
:1012C000401B02284FF00300F4D998E030688001F9
:1012D0007FF56EAFFFF7D0FA401B02284FF00300F6
:1012E000F4D98CE0306F40F004003067306F40F08C
:1012F00001003067FFF7C0FA002D054641F288373C
:1013000013D000BF306F800712D4FFF7B5FA401B2F
:10131000B842F7D9032002B0BDE8F081FFF7ACFA7C
:10132000401BB8424FF0030069D8306F8007F5D4F6
:10133000B8F1000F7FF408AF306C20F080503064BB
:1013400002E70020C4F2472000210160FFF794FA71
:10135000054600BF306880077FF5F0AEFFF78CFAD6
:10136000401B02284FF00300F4D948E0306840F4F5
:1013700080203060306840F480303060FFF77CFAC5
:10138000002D054613D000BF306880033FF5B0AE96
:10139000FFF772FA401B64284FF00300F4D92EE0E7
:1013A000FFF76AFA401B64284FF0030027D8306823
:1013B0008003F5D49CE604F11C052FCD246B084373
:1013C0000021CFF6FF7140EA821001EBC3316FF3C9
:1013D0000F0140EA0560084340EA04707060012094
:1013E0003866FFF749FA0446306880013FF5E0AE01
:1013F000FFF742FA001B02284FF00300F4D902B0B5
:10140000BDE8F08180B500F001FB80BD002804BF7D
:101410000120704710B5044690F83D0028B900201F
:1014200084F83C00204600F021F8242084F83D0098
:101430002068C16821F40051C160204600F062FBC1
:101440002068016921F490410161416921F02A017C
:101450004161C16841F40051C16000202021206435
:1014600084F83D1084F83E1010BD000080B586B0B1
:1014700044F200410068C4F2000100228842059253
:10148000CDE903220292019201D006B080BD43F65D
:1014900030000092C4F20200036943F40033036198
:1014A000036903F400330093009B0092036843F048
:1014B00001030360006800F00100009000980C2018
:1014C00001900220CDE9020203200490072005903C
:1014D00001F5DE3001A9FFF7FDF806B080BD000080
:1014E0002DE9F04381B0044690F83D0020280BD14F
:1014F0000E4600294FF0010055D01746002A52D061
:1015000094F83C00012803D1022001B0BDE8F0832B
:10151000012084F83C004FF0000921201D46C4F84A
:10152000409084F83D00FFF7A7F9A784E784A168FD
:101530000746B1F5805F07D1206900281CBF3046FF
:101540004E46B046064601E04FF0000884F83C9055
:1015500007E000BF16F8010B21684860E08C0138F5
:10156000E084E08C80B1204680213A462B4600F092
:1015700037FB80B9002EEDD138F8020B21686FF3EC
:101580005F2048600026E9E7204640213A462B4686
:1015900000F026FB18B1032001B0BDE8F083202045
:1015A00084F83D00002001B0BDE8F083FEE70000B4
:1015B0000268516949054FF000010FD56FF480634F
:1015C00053612022016380F83D2080F83E10026CB8
:1015D00042F00402026480F83C1001210846704782
:1015E0002DE9F04782B0044600680E460168DDF838
:1015F00028A041F4806101600168DDF82C9041F47D
:1016000080711D461746016020464FF001110022EF
:101610005346CDF8009000F069F850B1206800689A
:10162000C00544BF4FF400702064032002B0BDE841
:10163000F08740F202082068C0F2010806F0FE06BA
:1016400006612046414652464B4600F089F848BBA9
:101650000020019020684A46416901918069514605
:1016600001900198204600F0F1F898B9012D08D0BA
:101670002068390A0161204651464A4600F0E6F8E2
:1016800040B92068F9B20161204651464A4600F04F
:10169000DDF858B1206C042804D12068016841F4B9
:1016A00000710160012002B0BDE8F08720680022CF
:1016B0000168534641F48071016020464FF00111EA
:1016C000CDF8009000F012F80028A7D1206846F06D
:1016D000010101612046414652464B4600F040F868
:1016E000002818BF012002B0BDE8F0872DE9F047BF
:1016F000DDF820801D469146824601F47F078EB2B8
:101700005C1C00BFDAF80000B7F5803F14BF18304A
:10171000143000683040801BB0FA80F04009484522
:101720001BD1002CEED0FFF7A7F81DB1A0EB0800ED
:10173000A842E7D900202021CAF830008AF83D10DD
:101740008AF83E00DAF8401041F02001CAF8401053
:101750008AF83C000120BDE8F0870020BDE8F08752
:101760002DE9F04104460068984643698FB203EAC8
:101770000701B94202D10020BDE8F0814169490565
:1017800012D41646551C00BF35B1FFF775F816B3D5
:10179000A0EB0800B0421ED8206841693940B94228
:1017A000E9D041694905EFD5016841F40071016054
:1017B0006FF48061416100202021206384F83D1096
:1017C00084F83E00216C41F00401216484F83C005F
:1017D0000120BDE8F08100202021206384F83D1025
:1017E00084F83E00216C41F02001EEE770B515460B
:1017F0000E46044620684169490613D44169C9066A
:1018000012D4FFF739F816B1401BB042F2D90020CC
:101810002021206384F83D1084F83E00206C40F0C5
:1018200020000CE0002070BD6FF01001416100202D
:101830002021206384F83D1084F83E00206C206451
:10184000002084F83C00012070BD0000F0B581B09C
:10185000044600684069000624D415460E464F1C15
:1018600004E000BF2068406900061BD42046FFF753
:101870009FFEA0B9002FF5D0FEF7FEFF16B1401B6A
:10188000B042EFD900202021206384F83D1084F875
:101890003E00216C41F02001216484F83C000120CD
:1018A00001B0F0BD002001B0F0BD0000F0B587B080
:1018B000002643F630000696CDE90466CDE90266BF
:1018C0000196C4F202000168002441F004010160A5
:1018D0000168C4F2020401F004010191019901962A
:1018E0000168002241F0800101600168202701F0B9
:1018F0008001019101990196016841F001010160A7
:10190000016801F00101019101990196016841F01E
:10191000020101600068202100F00200019001989E
:101920002046FEF7A3FF4FF4005002904FF404103E
:1019300002ADCDE9030604F500602946FEF7CAFEB4
:101940000120CDE903062046294602970596FEF7B9
:10195000C1FE07B0F0BD000080B540F2780045F24E
:101960000041C2F20000C4F2000148F2A06200236C
:101970004FF4804CC0F2010280E80E00C0E9033C45
:10198000C0E90533C0E90733FEF77CFF002808BF34
:1019900080BDFEF785FE000080B540F2CC0044F229
:1019A0000041C2F20000C4F2000100234FF00C0C11
:1019B0004FF4E13280E80E00C0E90333C0E905C30B
:1019C000C361FFF723FD002808BF80BDFEF768FE56
:1019D000FEE70000FEE7000000F0070080F00703CC
:1019E000042B28BF04234FF0FF3C03380CFA03F309
:1019F00038BF0020994381400CFA00F022EA000031
:101A0000084370477047000070470000B0B50138C8
:101A10000024B4EB106F1CBF0120B0BD4EF21005C6
:101A2000CEF2000568604FF0FF300F2100F020F982
:101A30000720AC6028602046B0BD000080B5FFF7ED
:101A40002FF980BD10B594B007AC20463421FEF7C5
:101A500048FD002043F640010690CDE90400CDE9A1
:101A600002000190C4F202010A6842F080520A604A
:101A7000096801F080510191019947F2000101903C
:101A8000C4F200010A6842F440420A600968012277
:101A900001F44041019101990221CDE90D10082086
:101AA0000F90B4200A921022CDE910012046079130
:101AB0000B92CDE91211FFF7E1FAB0B9FFF776F911
:101AC00098B90F20029002200390002004904FF458
:101AD000A05005904FF48050069002A80521FFF712
:101AE000A3F9002804BF14B010BDFEF7D9FD000013
:101AF0004EF68850CEF20000016841F4700101609A
:101B00007047000010B504460068D4E902C223699A
:101B1000016921F4405111430161626943EA0C01FA
:101B2000E3691143C268194349F20C639A431143B4
:101B3000C1604169A26921F4407141F2004311433F
:101B400040F48062C4F201039A42416102D1FFF77E
:101B500033FA01E0FFF71EFAE16963681922B1F573
:101B6000004FA0FB02011CD15A00DB0FFEF79EFBC9
:101B700048F21F51C5F2EB11A0FB01235A096FF087
:101B8000630302FB0300322303EBC000A0FB01014F
:101B90004FF4F87000EA111000EB0210C1F342118B
:101BA0001AE09A009B0FFEF781FB48F21F51C5F225
:101BB000EB11A0FB01235A096FF0630302FB030042
:101BC000322303EB0010A0FB0101F02000EA5110CA
:101BD00000EB0210C1F3431122680843906010BD6E
:101BE0002DE9F0410446006800680840884202D1AF
:101BF0000020BDE8F0811D460E4690465F1C04E0C3
:101C0000206800683040B042F2D0002FF8D02DB1EB
:101C1000FEF732FEA0EB0800A842F1D9206850E898
:101C2000030F216820F4D07041E80302002AF5D1A7
:101C3000206850E8050F216820F0010041E8050206
:101C4000002AF5D1202084F83D0084F83E000020D1
:101C500084F83C000320BDE8F0810000FEE70000AE
:101C60004EF60C50CEF200000068C0F30220704720
:101C70004EF6145300F00F02CEF2000309011A448D
:101C800000F16043B0F1FF3FC8BF03F5644211703B
:101C9000704700004EF60C51CEF200010A684FF674
:101CA000FF031A4060F30A2242F0806040F0FD70AA
:101CB0000860704780B584B040F27001024606208B
:101CC000C2F20001CDE9001040F278004FF0640C40
:101CD000C2F20000A6210123CDF808C0FEF79EFE47
:101CE00004B080BD000000009AB0FEF7E7FFFFF7E8
:101CF000A9FEFFF7DBFDFFF72FFEFFF74DFE9FED7F
:101D0000340B40F2700840F2CC09C2F2000855ECE6
:101D100010BB0DF1040AC2F2000900BF3220FFF728
:101D2000C9FFB8F9006040F21410C2F20000B8F91F
:101D30000270068040F21C10C2F20000B8F90440A4
:101D4000078040F22410C2F200000480304600F008
:101D500082F85A462B4600F095F800F04BF840F216
:101D60001811C2F200010860384600F074F85A46B3
:101D70002B4600F087F800F03DF840F22011C2F247
:101D800000010860204600F066F85A462B4600F035
:101D900079F800F02FF840F22811C2F20001086033
:101DA00050460DA132463B460094FEF7F7FA5046E6
:101DB000FEF778FB82B2484651464FF0FF33FFF7FB
:101DC0008FFB4FF4FA70FEF771FCA7E700BF00BF6E
:101DD000DE718A8EE4F27F3F416363656C313A20A5
:101DE000583D256420593D2564205A3D25640D0A3F
:101DF0000000000021F0004201F00043A2F1605217
:101E0000B2F5801F28BFD2F17F6C0BD95FEA001CAE
:101E100043EAC20242EB507018BF704728BF20F05F
:101E200001007047B2F5801FBCBF184670474FEAEB
:101E3000410C1CF5001F02D2084600F02EB970B507
:101E400000F0CAF800000089FFF7F6BF4FF000402D
:101E5000A0F58000704710F0004248BF4042B0FA41
:101E600080F310FA03F10AD0C3F11D0303F5806378
:101E700002EB03524FEA415002EBD12170474FF081
:101E80000000704770B5DFF848C11CEA111E1EBF84
:101E90001CEA13159EEA0C0F95EA0C0F00F06F80F8
:101EA00081EA03044EEAD47EAE4421EA4C1123EACF
:101EB0004C1341F4801143F48013AEF17F7EA1FBFB
:101EC000024CA0FB0365361955EB0C05A1FB034C36
:101ED0004CF10003A0FB021C16EB0C06654153F10C
:101EE0000003094218BF46F0010613F4007F0BD12E
:101EF0004FEA03314FEA053041EA155140EA1650E6
:101F000034036FF003020AE04FEAC3214FEAC52011
:101F100041EA555140EA5650F4026FF0020202EBDA
:101F20002E4201EB025585EACE710AD05FEA440CDD
:101F300018BF24F0004450F1000041F1000120EAF4
:101F4000D47040F2FE7C624500D270BDA84214BF3E
:101F50004FF080444FF04044002E08BF0024BEF1F3
:101F6000806FA8BFA1F1C041BDE8704080F28280BF
:101F700001F1C04101F000414FF0000070470CEA50
:101F800013159EEA0C0F18BF95EA0C0F06D081EAD4
:101F9000030E4FF000000EF0004170BD00F01CF881
:101FA0008900013E00F007B800F009B84FEA430C81
:101FB0005FEA5C5C08D081EA030100F05BB84FEA9D
:101FC000410C5FEA5C5CF6D102494FF000007047BB
:101FD0000000FF070000F87F0EF1020E2EF0030E46
:101FE0005EF8046B364205D4012A43EB030515F570
:101FF000001F12D8012841EB010C1CF5001F0CD862
:102000000ED14FEAD17C0CEB4C0C0CF1020C15F507
:10201000001F08BF4CEBD37C04E04FF0080C01E03C
:102020004FEAD37C0CEB4C0526FA05F606F00706C2
:10203000B6F1040C06D20EEB860CBDE870404CF0F5
:10204000010C6047DFE80CF0090B02024FF0004181
:10205000A1F500214FF0000070BD1946104601287F
:1020600051EB010418BFD4F5001484BF002001F027
:10207000004170BD0808A0F500114FEA310170471A
:10208000F1EE100A4FF6FF71C0F2C03120EA0100F4
:1020900040F04070E1EE100A7047FF2141EAD05055
:1020A000C0057047000000000000000001020304AA
:1020B000060708090000000001020304E0200008F0
:1020C000000000201000000000020008F0200008BE
:1020D00010000020200700001C0200080000000083
:1020E0000024F400010000001000000000000000C7
:04000005080001C529
:00000001FF
